{
  "contractName": "CanTrack",
  "abi": [
    {
      "constant": true,
      "inputs": [],
      "name": "mostRecentCode",
      "outputs": [
        {
          "name": "",
          "type": "string"
        }
      ],
      "payable": false,
      "stateMutability": "view",
      "type": "function"
    },
    {
      "constant": true,
      "inputs": [],
      "name": "owner",
      "outputs": [
        {
          "name": "",
          "type": "address"
        }
      ],
      "payable": false,
      "stateMutability": "view",
      "type": "function"
    },
    {
      "constant": false,
      "inputs": [
        {
          "name": "newOwner",
          "type": "address"
        }
      ],
      "name": "transferOwnership",
      "outputs": [],
      "payable": false,
      "stateMutability": "nonpayable",
      "type": "function"
    },
    {
      "inputs": [],
      "payable": false,
      "stateMutability": "nonpayable",
      "type": "constructor"
    },
    {
      "anonymous": false,
      "inputs": [
        {
          "indexed": false,
          "name": "timestamp",
          "type": "uint256"
        },
        {
          "indexed": false,
          "name": "code",
          "type": "string"
        }
      ],
      "name": "ShortLink",
      "type": "event"
    },
    {
      "anonymous": false,
      "inputs": [
        {
          "indexed": true,
          "name": "previousOwner",
          "type": "address"
        },
        {
          "indexed": true,
          "name": "newOwner",
          "type": "address"
        }
      ],
      "name": "OwnershipTransferred",
      "type": "event"
    },
    {
      "constant": false,
      "inputs": [
        {
          "name": "_url",
          "type": "string"
        }
      ],
      "name": "setURL",
      "outputs": [],
      "payable": false,
      "stateMutability": "nonpayable",
      "type": "function"
    },
    {
      "constant": true,
      "inputs": [],
      "name": "getURL",
      "outputs": [
        {
          "name": "",
          "type": "string"
        }
      ],
      "payable": false,
      "stateMutability": "view",
      "type": "function"
    },
    {
      "constant": false,
      "inputs": [
        {
          "name": "_key",
          "type": "string"
        },
        {
          "name": "_value",
          "type": "uint256"
        }
      ],
      "name": "setConfig",
      "outputs": [],
      "payable": false,
      "stateMutability": "nonpayable",
      "type": "function"
    },
    {
      "constant": true,
      "inputs": [
        {
          "name": "_key",
          "type": "string"
        }
      ],
      "name": "getConfig",
      "outputs": [
        {
          "name": "_value",
          "type": "uint256"
        }
      ],
      "payable": false,
      "stateMutability": "view",
      "type": "function"
    },
    {
      "constant": false,
      "inputs": [
        {
          "name": "json",
          "type": "string"
        }
      ],
      "name": "addData",
      "outputs": [
        {
          "name": "",
          "type": "string"
        }
      ],
      "payable": false,
      "stateMutability": "nonpayable",
      "type": "function"
    },
    {
      "constant": true,
      "inputs": [],
      "name": "getMostRecentCode",
      "outputs": [
        {
          "name": "",
          "type": "string"
        }
      ],
      "payable": false,
      "stateMutability": "view",
      "type": "function"
    },
    {
      "constant": true,
      "inputs": [
        {
          "name": "code",
          "type": "string"
        }
      ],
      "name": "getTimestamp",
      "outputs": [
        {
          "name": "",
          "type": "uint256"
        }
      ],
      "payable": false,
      "stateMutability": "view",
      "type": "function"
    },
    {
      "constant": true,
      "inputs": [
        {
          "name": "code",
          "type": "string"
        }
      ],
      "name": "getData",
      "outputs": [
        {
          "name": "",
          "type": "string"
        }
      ],
      "payable": false,
      "stateMutability": "view",
      "type": "function"
    },
    {
      "constant": true,
      "inputs": [
        {
          "name": "code",
          "type": "string"
        }
      ],
      "name": "getSender",
      "outputs": [
        {
          "name": "",
          "type": "address"
        }
      ],
      "payable": false,
      "stateMutability": "view",
      "type": "function"
    }
  ],
  "bytecode": "0x606060405234156200001057600080fd5b336000806101000a81548173ffffffffffffffffffffffffffffffffffffffff021916908373ffffffffffffffffffffffffffffffffffffffff160217905550620000a86040805190810160405280600b81526020017f626c6f636b6f6666736574000000000000000000000000000000000000000000815250620f424062000129640100000000026200093b176401000000009004565b62000123606060405190810160405280602681526020017f68747470733a2f2f63616e79612d747261636b65722e6669726562617365617081526020017f702e636f6d2f0000000000000000000000000000000000000000000000000000815250620001fb6401000000000262000a0a176401000000009004565b62000322565b6000809054906101000a900473ffffffffffffffffffffffffffffffffffffffff1673ffffffffffffffffffffffffffffffffffffffff163373ffffffffffffffffffffffffffffffffffffffff161415156200018557600080fd5b806002836040518082805190602001908083835b602083101515620001c0578051825260208201915060208101905060208303925062000199565b6001836020036101000a0380198251168184511680821785525050505050509050019150509081526020016040518091039020819055505050565b6000809054906101000a900473ffffffffffffffffffffffffffffffffffffffff1673ffffffffffffffffffffffffffffffffffffffff163373ffffffffffffffffffffffffffffffffffffffff161415156200025757600080fd5b80600190805190602001906200026f92919062000273565b5050565b828054600181600116156101000203166002900490600052602060002090601f016020900481019282601f10620002b657805160ff1916838001178555620002e7565b82800160010185558215620002e7579182015b82811115620002e6578251825591602001919060010190620002c9565b5b509050620002f69190620002fa565b5090565b6200031f91905b808211156200031b57600081600090555060010162000301565b5090565b90565b6117ab80620003326000396000f3006060604052600436106100ba576000357c0100000000000000000000000000000000000000000000000000000000900463ffffffff16806305ce74e5146100bf5780631b20492f1461014d57806332e5e595146101ea57806338bcdc1c1461025b5780633e8f5b90146102e9578063773434081461034f5780638da5cb5b146103ac578063ae55c88814610401578063b44bd51d146104d7578063b6f435f214610548578063d4a2498d146105d6578063f2fde38b146106ac575b600080fd5b34156100ca57600080fd5b6100d26106e5565b6040518080602001828103825283818151815260200191508051906020019080838360005b838110156101125780820151818401526020810190506100f7565b50505050905090810190601f16801561013f5780820380516001836020036101000a031916815260200191505b509250505060405180910390f35b341561015857600080fd5b6101a8600480803590602001908201803590602001908080601f01602080910402602001604051908101604052809392919081815260200183838082843782019150505050505091905050610783565b604051808273ffffffffffffffffffffffffffffffffffffffff1673ffffffffffffffffffffffffffffffffffffffff16815260200191505060405180910390f35b34156101f557600080fd5b610245600480803590602001908201803590602001908080601f0160208091040260200160405190810160405280939291908181526020018383808284378201915050505050509190505061081b565b6040518082815260200191505060405180910390f35b341561026657600080fd5b61026e610893565b6040518080602001828103825283818151815260200191508051906020019080838360005b838110156102ae578082015181840152602081019050610293565b50505050905090810190601f1680156102db5780820380516001836020036101000a031916815260200191505b509250505060405180910390f35b34156102f457600080fd5b61034d600480803590602001908201803590602001908080601f0160208091040260200160405190810160405280939291908181526020018383808284378201915050505050509190803590602001909190505061093b565b005b341561035a57600080fd5b6103aa600480803590602001908201803590602001908080601f01602080910402602001604051908101604052809392919081815260200183838082843782019150505050505091905050610a0a565b005b34156103b757600080fd5b6103bf610a7f565b604051808273ffffffffffffffffffffffffffffffffffffffff1673ffffffffffffffffffffffffffffffffffffffff16815260200191505060405180910390f35b341561040c57600080fd5b61045c600480803590602001908201803590602001908080601f01602080910402602001604051908101604052809392919081815260200183838082843782019150505050505091905050610aa4565b6040518080602001828103825283818151815260200191508051906020019080838360005b8381101561049c578082015181840152602081019050610481565b50505050905090810190601f1680156104c95780820380516001836020036101000a031916815260200191505b509250505060405180910390f35b34156104e257600080fd5b610532600480803590602001908201803590602001908080601f01602080910402602001604051908101604052809392919081815260200183838082843782019150505050505091905050610bba565b6040518082815260200191505060405180910390f35b341561055357600080fd5b61055b610c2f565b6040518080602001828103825283818151815260200191508051906020019080838360005b8381101561059b578082015181840152602081019050610580565b50505050905090810190601f1680156105c85780820380516001836020036101000a031916815260200191505b509250505060405180910390f35b34156105e157600080fd5b610631600480803590602001908201803590602001908080601f01602080910402602001604051908101604052809392919081815260200183838082843782019150505050505091905050610cd7565b6040518080602001828103825283818151815260200191508051906020019080838360005b83811015610671578082015181840152602081019050610656565b50505050905090810190601f16801561069e5780820380516001836020036101000a031916815260200191505b509250505060405180910390f35b34156106b757600080fd5b6106e3600480803573ffffffffffffffffffffffffffffffffffffffff16906020019091905050610f76565b005b60048054600181600116156101000203166002900480601f01602080910402602001604051908101604052809291908181526020018280546001816001161561010002031660029004801561077b5780601f106107505761010080835404028352916020019161077b565b820191906000526020600020905b81548152906001019060200180831161075e57829003601f168201915b505050505081565b60006003826040518082805190602001908083835b6020831015156107bd5780518252602082019150602081019050602083039250610798565b6001836020036101000a038019825116818451168082178552505050505050905001915050908152602001604051809103902060020160009054906101000a900473ffffffffffffffffffffffffffffffffffffffff169050919050565b60006003826040518082805190602001908083835b6020831015156108555780518252602082019150602081019050602083039250610830565b6001836020036101000a0380198251168184511680821785525050505050509050019150509081526020016040518091039020600001549050919050565b61089b611632565b60018054600181600116156101000203166002900480601f0160208091040260200160405190810160405280929190818152602001828054600181600116156101000203166002900480156109315780601f1061090657610100808354040283529160200191610931565b820191906000526020600020905b81548152906001019060200180831161091457829003601f168201915b5050505050905090565b6000809054906101000a900473ffffffffffffffffffffffffffffffffffffffff1673ffffffffffffffffffffffffffffffffffffffff163373ffffffffffffffffffffffffffffffffffffffff1614151561099657600080fd5b806002836040518082805190602001908083835b6020831015156109cf57805182526020820191506020810190506020830392506109aa565b6001836020036101000a0380198251168184511680821785525050505050509050019150509081526020016040518091039020819055505050565b6000809054906101000a900473ffffffffffffffffffffffffffffffffffffffff1673ffffffffffffffffffffffffffffffffffffffff163373ffffffffffffffffffffffffffffffffffffffff16141515610a6557600080fd5b8060019080519060200190610a7b929190611646565b5050565b6000809054906101000a900473ffffffffffffffffffffffffffffffffffffffff1681565b610aac611632565b6003826040518082805190602001908083835b602083101515610ae45780518252602082019150602081019050602083039250610abf565b6001836020036101000a03801982511681845116808217855250505050505090500191505090815260200160405180910390206001018054600181600116156101000203166002900480601f016020809104026020016040519081016040528092919081815260200182805460018160011615610100020316600290048015610bae5780601f10610b8357610100808354040283529160200191610bae565b820191906000526020600020905b815481529060010190602001808311610b9157829003601f168201915b50505050509050919050565b60006002826040518082805190602001908083835b602083101515610bf45780518252602082019150602081019050602083039250610bcf565b6001836020036101000a0380198251168184511680821785525050505050509050019150509081526020016040518091039020549050919050565b610c37611632565b60048054600181600116156101000203166002900480601f016020809104026020016040519081016040528092919081815260200182805460018160011615610100020316600290048015610ccd5780601f10610ca257610100808354040283529160200191610ccd565b820191906000526020600020905b815481529060010190602001808311610cb057829003601f168201915b5050505050905090565b610cdf611632565b610ce76110cb565b60049080519060200190610cfc929190611646565b506060604051908101604052804281526020018381526020013273ffffffffffffffffffffffffffffffffffffffff16815250600360046040518082805460018160011615610100020316600290048015610d8e5780601f10610d6c576101008083540402835291820191610d8e565b820191906000526020600020905b815481529060010190602001808311610d7a575b50509150509081526020016040518091039020600082015181600001556020820151816001019080519060200190610dc79291906116c6565b5060408201518160020160006101000a81548173ffffffffffffffffffffffffffffffffffffffff021916908373ffffffffffffffffffffffffffffffffffffffff1602179055509050507f325959ebafa537e150cba904b0fe87c4f1f05cc51a0d8057d5c9f16c350251e54260046040518083815260200180602001828103825283818154600181600116156101000203166002900481526020019150805460018160011615610100020316600290048015610ec55780601f10610e9a57610100808354040283529160200191610ec5565b820191906000526020600020905b815481529060010190602001808311610ea857829003601f168201915b5050935050505060405180910390a160048054600181600116156101000203166002900480601f016020809104026020016040519081016040528092919081815260200182805460018160011615610100020316600290048015610f6a5780601f10610f3f57610100808354040283529160200191610f6a565b820191906000526020600020905b815481529060010190602001808311610f4d57829003601f168201915b50505050509050919050565b6000809054906101000a900473ffffffffffffffffffffffffffffffffffffffff1673ffffffffffffffffffffffffffffffffffffffff163373ffffffffffffffffffffffffffffffffffffffff16141515610fd157600080fd5b600073ffffffffffffffffffffffffffffffffffffffff168173ffffffffffffffffffffffffffffffffffffffff161415151561100d57600080fd5b8073ffffffffffffffffffffffffffffffffffffffff166000809054906101000a900473ffffffffffffffffffffffffffffffffffffffff1673ffffffffffffffffffffffffffffffffffffffff167f8be0079c531659141344cd1fd0a4f28419497f9722a3daafe3b4186f6b6457e060405160405180910390a3806000806101000a81548173ffffffffffffffffffffffffffffffffffffffff021916908373ffffffffffffffffffffffffffffffffffffffff16021790555050565b6110d3611632565b60006110dd611632565b60006110e7611632565b6110ef611632565b61112d6040805190810160405280600b81526020017f626c6f636b6f6666736574000000000000000000000000000000000000000000815250610bba565b43039450611145600b8661118d90919063ffffffff16565b93503273ffffffffffffffffffffffffffffffffffffffff16925061117460028461118d90919063ffffffff16565b91506111808483611452565b9050809550505050505090565b611195611632565b61119d611632565b6111a5611746565b6000806000806111b3611746565b60006111bd611746565b606060405190810160405280603a81526020017f3132333435363738396162636465666768696a6b6d6e6f70717273747576777881526020017f797a41424344454647484a4b4c4d4e505152535455565758595a0000000000008152509850889750603a96506000955060009450600093508a60ff166040518059106112405750595b9080825280601f01601f19166020018201604052509250600091505b8a60ff168260ff161015611356578660ff168c101561127a57600193505b8660ff168c81151561128857fe5b0694508660ff168c81151561129957fe5b049b5087858151811015156112aa57fe5b9060200101517f010000000000000000000000000000000000000000000000000000000000000090047f010000000000000000000000000000000000000000000000000000000000000002838360ff1681518110151561130657fe5b9060200101907effffffffffffffffffffffffffffffffffffffffffffffffffffffffffffff1916908160001a9053508580600101965050831561134957611356565b818060010192505061125c565b8560ff166040518059106113675750595b9080825280601f01601f19166020018201604052509050600091505b8560ff168260ff161015611440578260018388030360ff168151811015156113a757fe5b9060200101517f010000000000000000000000000000000000000000000000000000000000000090047f010000000000000000000000000000000000000000000000000000000000000002818360ff1681518110151561140357fe5b9060200101907effffffffffffffffffffffffffffffffffffffffffffffffffffffffffffff1916908160001a9053508180600101925050611383565b80995050505050505050505092915050565b61145a611632565b611462611746565b61146a611746565b611472611632565b61147a611746565b60008088955087945084518651016040518059106114955750595b9080825280601f01601f1916602001820160405250935083925060009150600090505b855181101561156b5785818151811015156114cf57fe5b9060200101517f010000000000000000000000000000000000000000000000000000000000000090047f010000000000000000000000000000000000000000000000000000000000000002838380600101945081518110151561152e57fe5b9060200101907effffffffffffffffffffffffffffffffffffffffffffffffffffffffffffff1916908160001a90535080806001019150506114b8565b600090505b845181101561162357848181518110151561158757fe5b9060200101517f010000000000000000000000000000000000000000000000000000000000000090047f01000000000000000000000000000000000000000000000000000000000000000283838060010194508151811015156115e657fe5b9060200101907effffffffffffffffffffffffffffffffffffffffffffffffffffffffffffff1916908160001a9053508080600101915050611570565b82965050505050505092915050565b602060405190810160405280600081525090565b828054600181600116156101000203166002900490600052602060002090601f016020900481019282601f1061168757805160ff19168380011785556116b5565b828001600101855582156116b5579182015b828111156116b4578251825591602001919060010190611699565b5b5090506116c2919061175a565b5090565b828054600181600116156101000203166002900490600052602060002090601f016020900481019282601f1061170757805160ff1916838001178555611735565b82800160010185558215611735579182015b82811115611734578251825591602001919060010190611719565b5b509050611742919061175a565b5090565b602060405190810160405280600081525090565b61177c91905b80821115611778576000816000905550600101611760565b5090565b905600a165627a7a72305820ed59195a31175bc1b4acd713ea56a2ba653c454065eb15ecafb86c74d890b92d0029",
  "source": "pragma solidity '0.4.19';\n\nimport '../node_modules/zeppelin-solidity/contracts/ownership/Ownable.sol';\nimport '../lib/strUtils.sol';\n\ncontract CanTrack is Ownable {\n    \n    using strUtils for *;\n    \n    \n    string URL;\n    \n    mapping(string => uint256) private config;\n\n    struct data {\n        uint256 timestamp; \n        string json; \n        address sender;\n    }\n    \n    mapping (string => data) private cantrack;\n\n    string public mostRecentCode;\n    \n    \n    event ShortLink(uint256 timestamp, string code);\n\n\n    function CanTrack() public {\n        // change the block offset to 1000000 to use contract in testnet\n        setConfig('blockoffset', 1000000);\n        setURL('https://canya-tracker.firebaseapp.com/');\n    }\n    \n    function setURL(string _url) public onlyOwner {\n        URL = _url;\n    }\n\n    function getURL() public view returns (string) {\n        return URL;\n    }\n    \n    function setConfig(string _key, uint256 _value) public onlyOwner {\n        config[_key] = _value;\n    }\n\n    function getConfig(string _key) public view returns (uint256 _value) {\n        return config[_key];\n    }\n\n    // Add record\n    function addData(string json) public returns (string) {\n        // require(json.isValidJson());\n\n        mostRecentCode = generateShortLink();\n        \n        cantrack[mostRecentCode] = data({\n            timestamp: block.timestamp,\n            json: json,\n            sender: tx.origin\n        });\n\n        ShortLink(block.timestamp, mostRecentCode);\n\n        return mostRecentCode;\n    }\n\n    function getMostRecentCode() public view returns (string) {\n        return mostRecentCode;\n    }\n\n    // Get record timestamp\n    function getTimestamp(string code) public view returns (uint256) {\n        return cantrack[code].timestamp;\n    }\n\n    // Get record JSON\n    function getData(string code) public view returns (string) {\n        return cantrack[code].json;\n    }\n\n    // Get record sender\n    function getSender(string code) public view returns (address) {\n        return cantrack[code].sender;\n    }\n\n    // Generates a shortlink code for this transaction\n    function generateShortLink() internal view returns (string) {\n        uint value = block.number - getConfig(\"blockoffset\");\n        string memory s1 = value.toBase58(11);\n        \n        uint256 value2 = uint256(tx.origin);\n        string memory s2 = value2.toBase58(2);\n\n        string memory s = strUtils.concat(s1, s2);\n        \n        return s;\n    }\n}",
  "sourcePath": "/Users/GustavoIbarra/Projects/Solidity/cantrack-v1/contracts/CanTrack.sol",
  "compiler": {
    "name": "solc",
    "version": "0.4.19+commit.c4cbbb05.Emscripten.clang"
  },
  "schemaVersion": "2.0.0",
  "updatedAt": "2018-04-05T23:14:39.388Z"
}